{
  "contractName": "HelloWorld",
  "abi": [
    {
      "inputs": [],
      "stateMutability": "nonpayable",
      "type": "constructor"
    },
    {
      "inputs": [],
      "name": "sentence",
      "outputs": [
        {
          "internalType": "string",
          "name": "",
          "type": "string"
        }
      ],
      "stateMutability": "view",
      "type": "function",
      "constant": true
    },
    {
      "inputs": [],
      "name": "userName",
      "outputs": [
        {
          "internalType": "string",
          "name": "",
          "type": "string"
        }
      ],
      "stateMutability": "view",
      "type": "function",
      "constant": true
    },
    {
      "inputs": [],
      "name": "saySomething",
      "outputs": [
        {
          "internalType": "string",
          "name": "",
          "type": "string"
        }
      ],
      "stateMutability": "view",
      "type": "function",
      "constant": true
    },
    {
      "inputs": [
        {
          "internalType": "string",
          "name": "newSentence",
          "type": "string"
        }
      ],
      "name": "changeSentence",
      "outputs": [],
      "stateMutability": "nonpayable",
      "type": "function"
    }
  ],
  "bytecode": "0x608060405234801561001057600080fd5b506040518060400160405280600c81526020017f48656c6c6f576f726c64202100000000000000000000000000000000000000008152506000908051906020019061005c9291906100ae565b506040518060400160405280600981526020017f4775696c6c61756d650000000000000000000000000000000000000000000000815250600190805190602001906100a89291906100ae565b506101b2565b8280546100ba90610151565b90600052602060002090601f0160209004810192826100dc5760008555610123565b82601f106100f557805160ff1916838001178555610123565b82800160010185558215610123579182015b82811115610122578251825591602001919060010190610107565b5b5090506101309190610134565b5090565b5b8082111561014d576000816000905550600101610135565b5090565b6000600282049050600182168061016957607f821691505b6020821081141561017d5761017c610183565b5b50919050565b7f4e487b7100000000000000000000000000000000000000000000000000000000600052602260045260246000fd5b6109b6806101c16000396000f3fe608060405234801561001057600080fd5b506004361061004c5760003560e01c80631a8850f21461005157806370019b351461006d5780638463fa6c1461008b578063fbd61553146100a9575b600080fd5b61006b60048036038101906100669190610686565b6100c7565b005b6100756100e1565b6040516100829190610700565b60405180910390f35b61009361016f565b6040516100a09190610700565b60405180910390f35b6100b16101fd565b6040516100be9190610700565b60405180910390f35b80600090805190602001906100dd92919061057b565b5050565b600180546100ee90610836565b80601f016020809104026020016040519081016040528092919081815260200182805461011a90610836565b80156101675780601f1061013c57610100808354040283529160200191610167565b820191906000526020600020905b81548152906001019060200180831161014a57829003601f168201915b505050505081565b6000805461017c90610836565b80601f01602080910402602001604051908101604052809291908181526020018280546101a890610836565b80156101f55780601f106101ca576101008083540402835291602001916101f5565b820191906000526020600020905b8154815290600101906020018083116101d857829003601f168201915b505050505081565b606061031d6000805461020f90610836565b80601f016020809104026020016040519081016040528092919081815260200182805461023b90610836565b80156102885780601f1061025d57610100808354040283529160200191610288565b820191906000526020600020905b81548152906001019060200180831161026b57829003601f168201915b50505050506001805461029a90610836565b80601f01602080910402602001604051908101604052809291908181526020018280546102c690610836565b80156103135780601f106102e857610100808354040283529160200191610313565b820191906000526020600020905b8154815290600101906020018083116102f657829003601f168201915b5050505050610322565b905090565b60606000839050600083905060008151835161033e9190610794565b67ffffffffffffffff81111561037d577f4e487b7100000000000000000000000000000000000000000000000000000000600052604160045260246000fd5b6040519080825280601f01601f1916602001820160405280156103af5781602001600182028036833780820191505090505b5090506000819050600080600091505b855182101561049357858281518110610401577f4e487b7100000000000000000000000000000000000000000000000000000000600052603260045260246000fd5b602001015160f81c60f81b83828061041890610899565b935081518110610451577f4e487b7100000000000000000000000000000000000000000000000000000000600052603260045260246000fd5b60200101907effffffffffffffffffffffffffffffffffffffffffffffffffffffffffffff1916908160001a905350818061048b90610899565b9250506103bf565b600091505b845182101561056c578482815181106104da577f4e487b7100000000000000000000000000000000000000000000000000000000600052603260045260246000fd5b602001015160f81c60f81b8382806104f190610899565b93508151811061052a577f4e487b7100000000000000000000000000000000000000000000000000000000600052603260045260246000fd5b60200101907effffffffffffffffffffffffffffffffffffffffffffffffffffffffffffff1916908160001a905350818061056490610899565b925050610498565b82965050505050505092915050565b82805461058790610836565b90600052602060002090601f0160209004810192826105a957600085556105f0565b82601f106105c257805160ff19168380011785556105f0565b828001600101855582156105f0579182015b828111156105ef5782518255916020019190600101906105d4565b5b5090506105fd9190610601565b5090565b5b8082111561061a576000816000905550600101610602565b5090565b600061063161062c84610747565b610722565b90508281526020810184848401111561064957600080fd5b6106548482856107f4565b509392505050565b600082601f83011261066d57600080fd5b813561067d84826020860161061e565b91505092915050565b60006020828403121561069857600080fd5b600082013567ffffffffffffffff8111156106b257600080fd5b6106be8482850161065c565b91505092915050565b60006106d282610778565b6106dc8185610783565b93506106ec818560208601610803565b6106f58161096f565b840191505092915050565b6000602082019050818103600083015261071a81846106c7565b905092915050565b600061072c61073d565b90506107388282610868565b919050565b6000604051905090565b600067ffffffffffffffff82111561076257610761610940565b5b61076b8261096f565b9050602081019050919050565b600081519050919050565b600082825260208201905092915050565b600061079f826107ea565b91506107aa836107ea565b9250827fffffffffffffffffffffffffffffffffffffffffffffffffffffffffffffffff038211156107df576107de6108e2565b5b828201905092915050565b6000819050919050565b82818337600083830152505050565b60005b83811015610821578082015181840152602081019050610806565b83811115610830576000848401525b50505050565b6000600282049050600182168061084e57607f821691505b6020821081141561086257610861610911565b5b50919050565b6108718261096f565b810181811067ffffffffffffffff821117156108905761088f610940565b5b80604052505050565b60006108a4826107ea565b91507fffffffffffffffffffffffffffffffffffffffffffffffffffffffffffffffff8214156108d7576108d66108e2565b5b600182019050919050565b7f4e487b7100000000000000000000000000000000000000000000000000000000600052601160045260246000fd5b7f4e487b7100000000000000000000000000000000000000000000000000000000600052602260045260246000fd5b7f4e487b7100000000000000000000000000000000000000000000000000000000600052604160045260246000fd5b6000601f19601f830116905091905056fea26469706673582212205f4986841e5cab7d7342d01d0af491da8482a08fba6fdf24edf3daa29cd3afe964736f6c63430008010033",
  "immutableReferences": {},
  "source": "pragma solidity >=0.4.0<0.9.0;\r\n\r\ncontract HelloWorld {\r\n    string public sentence;\r\n    string public userName;\r\n\r\n    constructor() {\r\n        sentence = \"HelloWorld !\";\r\n        userName = \"Guillaume\";\r\n    }\r\n\r\n    function saySomething() public view returns(string memory){\r\n        return (concat(sentence, userName));\r\n    }\r\n\r\n    function changeSentence(string memory newSentence) public {\r\n        sentence = newSentence;\r\n    }\r\n\r\n    function concat(string memory _base, string memory _value) internal pure returns (string memory) {\r\n           bytes memory _baseBytes = bytes(_base);\r\n           bytes memory _valueBytes = bytes(_value);\r\n\r\n           string memory _tmpValue = new string(_baseBytes.length + _valueBytes.length);\r\n           bytes memory _newValue = bytes(_tmpValue);\r\n\r\n           uint i;\r\n           uint j;\r\n\r\n           for(i=0; i<_baseBytes.length; i++) {\r\n               _newValue[j++] = _baseBytes[i];\r\n           }\r\n\r\n           for(i=0; i<_valueBytes.length; i++) {\r\n               _newValue[j++] = _valueBytes[i];\r\n           }\r\n\r\n           return string(_newValue);\r\n       }\r\n\r\n}",
  "sourcePath": "C:/Users/adrie/Desktop/ethcours/HelloWorld-Tutoriel/contracts/HelloWorld.sol",
  "compiler": {
    "name": "solc",
    "version": "0.8.1+commit.df193b15.Emscripten.clang"
  },
  "schemaVersion": "3.3.3",
  "updatedAt": "2021-02-04T07:03:45.232Z",
  "networkType": "ethereum",
  "devdoc": {
    "kind": "dev",
    "methods": {},
    "version": 1
  },
  "userdoc": {
    "kind": "user",
    "methods": {},
    "version": 1
  }
}